:020000040000FA
:0400000000003128A3
:040004000034003490
:08000800FD000308FE000A08D8
:10001000FF001A08A100211819281728A1181D2867
:100020001B28211921281F28A11B232826289F11BE
:100030000E289F150E281F1211281F1611289F1217
:1000400014289F1614280108A10028280030A100B8
:100050008C129A017F088A007E088300FD0E7D0EB7
:1000600009000313831681128111011581140110F7
:100070008312031381309F008316031300309F0007
:100080000313831626309800063099008C168312CD
:1000900098309800031383120030A10003138312D9
:1000A0000B178B1703138312211C54283D3081003A
:1000B0000B110B1D59281F151F195C281E089900CC
:0200C0005428C2
:02400E00B33FBE
:00000001FF
