:020000040000FA
:0400000000002F28A5
:040004000034003490
:08000800FD000308FE000A08D8
:10001000FF000B1912207F088A007E088300FD0E66
:100020007D0E09001C201E08A00024201E08A1002F
:100030003C3081000B110800031383129F111F1223
:100040009F121F152C200800031383129F151F12E7
:100050009F121F152C2008001F1908002C2834207F
:10006000412048204F205E2803138316033085006B
:100070009F111F119F101F109F13031383121F1432
:100080000800031383160030860003138312080050
:100090000313831601308700031383120800031330
:1000A0008316811281110110811401158B178B1693
:1000B000831203133C3081000B11080003138312D9
:1000C000071C63286628200886005E282108860011
:0200D0005E28A8
:02400E00B33FBE
:00000001FF
