:020000040000FA
:040000000000412893
:040004000034003490
:08000800FD000308FE000A08D8
:10001000FF00031383120B1914207F088A007E0847
:100020008300FD0E7D0E0900A519242025192C2022
:10003000A5183220251838200310A50C03183E20DF
:10004000063081000B110800831324088400250862
:100050008500000886000800840A2508850000083D
:1000600086000800840A250885000008860008002C
:10007000840A250885000008860008000830A500CD
:10008000080047205020732057206420BE28031307
:1000900083160030850006309F000313831208008A
:1000A00003138316003086000313831208002D0803
:1000B000A0003308A1003008A2002608A3002030C9
:1000C000A4000830A50008000313831681128111D3
:1000D0000114811401158B178B168312031306303C
:1000E00081000B1108007730A6007C30A700583043
:1000F000A8005E30A9007930AA007130AB007D30D5
:10010000AC007630AD000630AE001E30AF003830A7
:10011000B0005430B1005530B2005C30B3007330E1
:10012000B4005030B5006D30B6007830B7001C30E8
:10013000B8006E30B9000630BA005B30BB004F30FB
:10014000BC006630BD006D30BE007D30BF000730A2
:10015000C0007F30C1006730C2003F30C3004F3065
:10016000C4004F30C5004F30C6004F30C7004F307D
:0E017000C8004F30C9004F30CA000800BE283A
:02400E00B33FBE
:00000001FF
